{
  "contractName": "LinniaPermissions",
  "abi": [
    {
      "constant": true,
      "inputs": [],
      "name": "hub",
      "outputs": [
        {
          "name": "",
          "type": "address"
        }
      ],
      "payable": false,
      "stateMutability": "view",
      "type": "function"
    },
    {
      "constant": true,
      "inputs": [
        {
          "name": "",
          "type": "bytes32"
        },
        {
          "name": "",
          "type": "address"
        }
      ],
      "name": "permissions",
      "outputs": [
        {
          "name": "canAccess",
          "type": "bool"
        },
        {
          "name": "dataUri",
          "type": "string"
        }
      ],
      "payable": false,
      "stateMutability": "view",
      "type": "function"
    },
    {
      "constant": false,
      "inputs": [],
      "name": "unpause",
      "outputs": [],
      "payable": false,
      "stateMutability": "nonpayable",
      "type": "function"
    },
    {
      "constant": true,
      "inputs": [],
      "name": "paused",
      "outputs": [
        {
          "name": "",
          "type": "bool"
        }
      ],
      "payable": false,
      "stateMutability": "view",
      "type": "function"
    },
    {
      "constant": false,
      "inputs": [],
      "name": "renounceOwnership",
      "outputs": [],
      "payable": false,
      "stateMutability": "nonpayable",
      "type": "function"
    },
    {
      "constant": false,
      "inputs": [],
      "name": "destroy",
      "outputs": [],
      "payable": false,
      "stateMutability": "nonpayable",
      "type": "function"
    },
    {
      "constant": false,
      "inputs": [],
      "name": "pause",
      "outputs": [],
      "payable": false,
      "stateMutability": "nonpayable",
      "type": "function"
    },
    {
      "constant": true,
      "inputs": [],
      "name": "owner",
      "outputs": [
        {
          "name": "",
          "type": "address"
        }
      ],
      "payable": false,
      "stateMutability": "view",
      "type": "function"
    },
    {
      "constant": false,
      "inputs": [
        {
          "name": "_newOwner",
          "type": "address"
        }
      ],
      "name": "transferOwnership",
      "outputs": [],
      "payable": false,
      "stateMutability": "nonpayable",
      "type": "function"
    },
    {
      "constant": false,
      "inputs": [
        {
          "name": "_recipient",
          "type": "address"
        }
      ],
      "name": "destroyAndSend",
      "outputs": [],
      "payable": false,
      "stateMutability": "nonpayable",
      "type": "function"
    },
    {
      "inputs": [
        {
          "name": "_hub",
          "type": "address"
        }
      ],
      "payable": false,
      "stateMutability": "nonpayable",
      "type": "constructor"
    },
    {
      "payable": false,
      "stateMutability": "nonpayable",
      "type": "fallback"
    },
    {
      "anonymous": false,
      "inputs": [
        {
          "indexed": true,
          "name": "dataHash",
          "type": "bytes32"
        },
        {
          "indexed": true,
          "name": "owner",
          "type": "address"
        },
        {
          "indexed": true,
          "name": "viewer",
          "type": "address"
        }
      ],
      "name": "LogAccessGranted",
      "type": "event"
    },
    {
      "anonymous": false,
      "inputs": [
        {
          "indexed": true,
          "name": "dataHash",
          "type": "bytes32"
        },
        {
          "indexed": true,
          "name": "owner",
          "type": "address"
        },
        {
          "indexed": true,
          "name": "viewer",
          "type": "address"
        }
      ],
      "name": "LogAccessRevoked",
      "type": "event"
    },
    {
      "anonymous": false,
      "inputs": [],
      "name": "Pause",
      "type": "event"
    },
    {
      "anonymous": false,
      "inputs": [],
      "name": "Unpause",
      "type": "event"
    },
    {
      "anonymous": false,
      "inputs": [
        {
          "indexed": true,
          "name": "previousOwner",
          "type": "address"
        }
      ],
      "name": "OwnershipRenounced",
      "type": "event"
    },
    {
      "anonymous": false,
      "inputs": [
        {
          "indexed": true,
          "name": "previousOwner",
          "type": "address"
        },
        {
          "indexed": true,
          "name": "newOwner",
          "type": "address"
        }
      ],
      "name": "OwnershipTransferred",
      "type": "event"
    },
    {
      "constant": false,
      "inputs": [
        {
          "name": "dataHash",
          "type": "bytes32"
        },
        {
          "name": "viewer",
          "type": "address"
        },
        {
          "name": "dataUri",
          "type": "string"
        }
      ],
      "name": "grantAccess",
      "outputs": [
        {
          "name": "",
          "type": "bool"
        }
      ],
      "payable": false,
      "stateMutability": "nonpayable",
      "type": "function"
    },
    {
      "constant": false,
      "inputs": [
        {
          "name": "dataHash",
          "type": "bytes32"
        },
        {
          "name": "viewer",
          "type": "address"
        }
      ],
      "name": "revokeAccess",
      "outputs": [
        {
          "name": "",
          "type": "bool"
        }
      ],
      "payable": false,
      "stateMutability": "nonpayable",
      "type": "function"
    }
  ],
  "bytecode": "0x608060405260008060146101000a81548160ff02191690831515021790555034801561002a57600080fd5b5060405160208061169283398101806040528101908080519060200190929190505050336000806101000a81548173ffffffffffffffffffffffffffffffffffffffff021916908373ffffffffffffffffffffffffffffffffffffffff16021790555080600160006101000a81548173ffffffffffffffffffffffffffffffffffffffff021916908373ffffffffffffffffffffffffffffffffffffffff160217905550506115b4806100de6000396000f3006080604052600436106100ba576000357c0100000000000000000000000000000000000000000000000000000000900463ffffffff1680630e169119146100c9578063365a86fc1461014a5780633ec50c6c146101a15780633f4ba83a146102765780635c975abb1461028d578063715018a6146102bc57806383197ef0146102d35780638456cb59146102ea5780638d53b208146103015780638da5cb5b1461036a578063f2fde38b146103c1578063f5074f4114610404575b3480156100c657600080fd5b50005b3480156100d557600080fd5b506101306004803603810190808035600019169060200190929190803573ffffffffffffffffffffffffffffffffffffffff169060200190929190803590602001908201803590602001919091929391929390505050610447565b604051808215151515815260200191505060405180910390f35b34801561015657600080fd5b5061015f6109b5565b604051808273ffffffffffffffffffffffffffffffffffffffff1673ffffffffffffffffffffffffffffffffffffffff16815260200191505060405180910390f35b3480156101ad57600080fd5b506101f06004803603810190808035600019169060200190929190803573ffffffffffffffffffffffffffffffffffffffff1690602001909291905050506109db565b604051808315151515815260200180602001828103825283818151815260200191508051906020019080838360005b8381101561023a57808201518184015260208101905061021f565b50505050905090810190601f1680156102675780820380516001836020036101000a031916815260200191505b50935050505060405180910390f35b34801561028257600080fd5b5061028b610ab1565b005b34801561029957600080fd5b506102a2610b6f565b604051808215151515815260200191505060405180910390f35b3480156102c857600080fd5b506102d1610b82565b005b3480156102df57600080fd5b506102e8610c84565b005b3480156102f657600080fd5b506102ff610d19565b005b34801561030d57600080fd5b506103506004803603810190808035600019169060200190929190803573ffffffffffffffffffffffffffffffffffffffff169060200190929190505050610dd9565b604051808215151515815260200191505060405180910390f35b34801561037657600080fd5b5061037f6112e9565b604051808273ffffffffffffffffffffffffffffffffffffffff1673ffffffffffffffffffffffffffffffffffffffff16815260200191505060405180910390f35b3480156103cd57600080fd5b50610402600480360381019080803573ffffffffffffffffffffffffffffffffffffffff16906020019092919050505061130e565b005b34801561041057600080fd5b50610445600480360381019080803573ffffffffffffffffffffffffffffffffffffffff169060200190929190505050611375565b005b600060011515600160009054906101000a900473ffffffffffffffffffffffffffffffffffffffff1673ffffffffffffffffffffffffffffffffffffffff1663142ebf3c6040518163ffffffff167c0100000000000000000000000000000000000000000000000000000000028152600401602060405180830381600087803b1580156104d357600080fd5b505af11580156104e7573d6000803e3d6000fd5b505050506040513d60208110156104fd57600080fd5b810190808051906020019092919050505073ffffffffffffffffffffffffffffffffffffffff16634209fff1336040518263ffffffff167c0100000000000000000000000000000000000000000000000000000000028152600401808273ffffffffffffffffffffffffffffffffffffffff1673ffffffffffffffffffffffffffffffffffffffff168152602001915050602060405180830381600087803b1580156105a857600080fd5b505af11580156105bc573d6000803e3d6000fd5b505050506040513d60208110156105d257600080fd5b810190808051906020019092919050505015151415156105f157600080fd5b843373ffffffffffffffffffffffffffffffffffffffff16600160009054906101000a900473ffffffffffffffffffffffffffffffffffffffff1673ffffffffffffffffffffffffffffffffffffffff1663fc0d561e6040518163ffffffff167c0100000000000000000000000000000000000000000000000000000000028152600401602060405180830381600087803b15801561068f57600080fd5b505af11580156106a3573d6000803e3d6000fd5b505050506040513d60208110156106b957600080fd5b810190808051906020019092919050505073ffffffffffffffffffffffffffffffffffffffff166336880b82836040518263ffffffff167c0100000000000000000000000000000000000000000000000000000000028152600401808260001916600019168152602001915050602060405180830381600087803b15801561074057600080fd5b505af1158015610754573d6000803e3d6000fd5b505050506040513d602081101561076a57600080fd5b810190808051906020019092919050505073ffffffffffffffffffffffffffffffffffffffff1614151561079d57600080fd5b600060149054906101000a900460ff161515156107b957600080fd5b60008573ffffffffffffffffffffffffffffffffffffffff16141515156107df57600080fd5b600084849050141515156107f257600080fd5b60026000876000191660001916815260200190815260200160002060008673ffffffffffffffffffffffffffffffffffffffff1673ffffffffffffffffffffffffffffffffffffffff16815260200190815260200160002060000160009054906101000a900460ff1615151561086757600080fd5b604080519081016040528060011515815260200185858080601f01602080910402602001604051908101604052809392919081815260200183838082843782019150505050505081525060026000886000191660001916815260200190815260200160002060008773ffffffffffffffffffffffffffffffffffffffff1673ffffffffffffffffffffffffffffffffffffffff16815260200190815260200160002060008201518160000160006101000a81548160ff02191690831515021790555060208201518160010190805190602001906109459291906114e3565b509050508473ffffffffffffffffffffffffffffffffffffffff163373ffffffffffffffffffffffffffffffffffffffff1687600019167f40960a1518de48ffd63acad2cfab21213a0d1ebe9ba174d1634bb707bc83f36160405160405180910390a46001915050949350505050565b600160009054906101000a900473ffffffffffffffffffffffffffffffffffffffff1681565b6002602052816000526040600020602052806000526040600020600091509150508060000160009054906101000a900460ff1690806001018054600181600116156101000203166002900480601f016020809104026020016040519081016040528092919081815260200182805460018160011615610100020316600290048015610aa75780601f10610a7c57610100808354040283529160200191610aa7565b820191906000526020600020905b815481529060010190602001808311610a8a57829003601f168201915b5050505050905082565b6000809054906101000a900473ffffffffffffffffffffffffffffffffffffffff1673ffffffffffffffffffffffffffffffffffffffff163373ffffffffffffffffffffffffffffffffffffffff16141515610b0c57600080fd5b600060149054906101000a900460ff161515610b2757600080fd5b60008060146101000a81548160ff0219169083151502179055507f7805862f689e2f13df9f062ff482ad3ad112aca9e0847911ed832e158c525b3360405160405180910390a1565b600060149054906101000a900460ff1681565b6000809054906101000a900473ffffffffffffffffffffffffffffffffffffffff1673ffffffffffffffffffffffffffffffffffffffff163373ffffffffffffffffffffffffffffffffffffffff16141515610bdd57600080fd5b6000809054906101000a900473ffffffffffffffffffffffffffffffffffffffff1673ffffffffffffffffffffffffffffffffffffffff167ff8df31144d9c2f0f6b59d69b8b98abd5459d07f2742c4df920b25aae33c6482060405160405180910390a260008060006101000a81548173ffffffffffffffffffffffffffffffffffffffff021916908373ffffffffffffffffffffffffffffffffffffffff160217905550565b6000809054906101000a900473ffffffffffffffffffffffffffffffffffffffff1673ffffffffffffffffffffffffffffffffffffffff163373ffffffffffffffffffffffffffffffffffffffff16141515610cdf57600080fd5b6000809054906101000a900473ffffffffffffffffffffffffffffffffffffffff1673ffffffffffffffffffffffffffffffffffffffff16ff5b6000809054906101000a900473ffffffffffffffffffffffffffffffffffffffff1673ffffffffffffffffffffffffffffffffffffffff163373ffffffffffffffffffffffffffffffffffffffff16141515610d7457600080fd5b600060149054906101000a900460ff16151515610d9057600080fd5b6001600060146101000a81548160ff0219169083151502179055507f6985a02210a168e66602d3235cb6db0e70f92b3ba4d376a33c0f3d9434bff62560405160405180910390a1565b600060011515600160009054906101000a900473ffffffffffffffffffffffffffffffffffffffff1673ffffffffffffffffffffffffffffffffffffffff1663142ebf3c6040518163ffffffff167c0100000000000000000000000000000000000000000000000000000000028152600401602060405180830381600087803b158015610e6557600080fd5b505af1158015610e79573d6000803e3d6000fd5b505050506040513d6020811015610e8f57600080fd5b810190808051906020019092919050505073ffffffffffffffffffffffffffffffffffffffff16634209fff1336040518263ffffffff167c0100000000000000000000000000000000000000000000000000000000028152600401808273ffffffffffffffffffffffffffffffffffffffff1673ffffffffffffffffffffffffffffffffffffffff168152602001915050602060405180830381600087803b158015610f3a57600080fd5b505af1158015610f4e573d6000803e3d6000fd5b505050506040513d6020811015610f6457600080fd5b81019080805190602001909291905050501515141515610f8357600080fd5b823373ffffffffffffffffffffffffffffffffffffffff16600160009054906101000a900473ffffffffffffffffffffffffffffffffffffffff1673ffffffffffffffffffffffffffffffffffffffff1663fc0d561e6040518163ffffffff167c0100000000000000000000000000000000000000000000000000000000028152600401602060405180830381600087803b15801561102157600080fd5b505af1158015611035573d6000803e3d6000fd5b505050506040513d602081101561104b57600080fd5b810190808051906020019092919050505073ffffffffffffffffffffffffffffffffffffffff166336880b82836040518263ffffffff167c0100000000000000000000000000000000000000000000000000000000028152600401808260001916600019168152602001915050602060405180830381600087803b1580156110d257600080fd5b505af11580156110e6573d6000803e3d6000fd5b505050506040513d60208110156110fc57600080fd5b810190808051906020019092919050505073ffffffffffffffffffffffffffffffffffffffff1614151561112f57600080fd5b600060149054906101000a900460ff1615151561114b57600080fd5b60026000856000191660001916815260200190815260200160002060008473ffffffffffffffffffffffffffffffffffffffff1673ffffffffffffffffffffffffffffffffffffffff16815260200190815260200160002060000160009054906101000a900460ff1615156111bf57600080fd5b6040805190810160405280600015158152602001602060405190810160405280600081525081525060026000866000191660001916815260200190815260200160002060008573ffffffffffffffffffffffffffffffffffffffff1673ffffffffffffffffffffffffffffffffffffffff16815260200190815260200160002060008201518160000160006101000a81548160ff021916908315150217905550602082015181600101908051906020019061127b9291906114e3565b509050508273ffffffffffffffffffffffffffffffffffffffff163373ffffffffffffffffffffffffffffffffffffffff1685600019167f165bd0f65a8350ab50ef57539ea72ed108cc257c066b2589df2d96c10e957b4f60405160405180910390a4600191505092915050565b6000809054906101000a900473ffffffffffffffffffffffffffffffffffffffff1681565b6000809054906101000a900473ffffffffffffffffffffffffffffffffffffffff1673ffffffffffffffffffffffffffffffffffffffff163373ffffffffffffffffffffffffffffffffffffffff1614151561136957600080fd5b611372816113e9565b50565b6000809054906101000a900473ffffffffffffffffffffffffffffffffffffffff1673ffffffffffffffffffffffffffffffffffffffff163373ffffffffffffffffffffffffffffffffffffffff161415156113d057600080fd5b8073ffffffffffffffffffffffffffffffffffffffff16ff5b600073ffffffffffffffffffffffffffffffffffffffff168173ffffffffffffffffffffffffffffffffffffffff161415151561142557600080fd5b8073ffffffffffffffffffffffffffffffffffffffff166000809054906101000a900473ffffffffffffffffffffffffffffffffffffffff1673ffffffffffffffffffffffffffffffffffffffff167f8be0079c531659141344cd1fd0a4f28419497f9722a3daafe3b4186f6b6457e060405160405180910390a3806000806101000a81548173ffffffffffffffffffffffffffffffffffffffff021916908373ffffffffffffffffffffffffffffffffffffffff16021790555050565b828054600181600116156101000203166002900490600052602060002090601f016020900481019282601f1061152457805160ff1916838001178555611552565b82800160010185558215611552579182015b82811115611551578251825591602001919060010190611536565b5b50905061155f9190611563565b5090565b61158591905b80821115611581576000816000905550600101611569565b5090565b905600a165627a7a723058201f37fae917949a83503bd26bca51b99ecaddb1946c3158e6686529a58088c2480029",
  "source": "pragma solidity 0.4.24;\n\nimport \"openzeppelin-solidity/contracts/lifecycle/Destructible.sol\";\nimport \"openzeppelin-solidity/contracts/lifecycle/Pausable.sol\";\nimport \"openzeppelin-solidity/contracts/ownership/Ownable.sol\";\n\nimport \"./LinniaHub.sol\";\nimport \"./LinniaRecords.sol\";\nimport \"./LinniaUsers.sol\";\n\n\ncontract LinniaPermissions is Ownable, Pausable, Destructible {\n    struct Permission {\n        bool canAccess;\n        // ipfs path of the data, encrypted to the viewer\n        string dataUri;\n    }\n\n    event LogAccessGranted(bytes32 indexed dataHash, address indexed owner,\n        address indexed viewer\n    );\n    event LogAccessRevoked(bytes32 indexed dataHash, address indexed owner,\n        address indexed viewer\n    );\n\n    LinniaHub public hub;\n    // dataHash => viewer => permission mapping\n    mapping(bytes32 => mapping(address => Permission)) public permissions;\n\n    /* Modifiers */\n    modifier onlyUser() {\n        require(hub.usersContract().isUser(msg.sender) == true);\n        _;\n    }\n\n    modifier onlyRecordOwnerOf(bytes32 dataHash) {\n        require(hub.recordsContract().recordOwnerOf(dataHash) == msg.sender);\n        _;\n    }\n\n    /* Constructor */\n    constructor(LinniaHub _hub) public {\n        hub = _hub;\n    }\n\n    /* Fallback function */\n    function () public { }\n\n    /* External functions */\n\n    /// Give a viewer access to a linnia record\n    /// Called by owner of the record.\n    /// @param dataHash the data hash of the linnia record\n    /// @param viewer the user being permissioned to view the data\n    /// @param dataUri the ipfs path of the re-encrypted data\n    function grantAccess(bytes32 dataHash, address viewer, string dataUri)\n        onlyUser\n        onlyRecordOwnerOf(dataHash)\n        whenNotPaused\n        external\n        returns (bool)\n    {\n        // validate input\n        require(viewer != 0);\n        require(bytes(dataUri).length != 0);\n\n        // access must not have already been granted\n        require(!permissions[dataHash][viewer].canAccess);\n        permissions[dataHash][viewer] = Permission({\n            canAccess: true,\n            dataUri: dataUri\n        });\n        emit LogAccessGranted(dataHash, msg.sender, viewer);\n        return true;\n    }\n\n    /// Revoke a viewer access to a linnia record\n    /// Note that this does not necessarily remove the file from storage\n    /// @param dataHash the data hash of the linnia record\n    /// @param viewer the user that has permission to view the data\n    function revokeAccess(bytes32 dataHash, address viewer)\n        onlyUser\n        onlyRecordOwnerOf(dataHash)\n        whenNotPaused\n        external\n        returns (bool)\n    {\n        // access must have already been grated\n        require(permissions[dataHash][viewer].canAccess);\n        permissions[dataHash][viewer] = Permission({\n            canAccess: false,\n            dataUri: \"\"\n        });\n        emit LogAccessRevoked(dataHash, msg.sender, viewer);\n        return true;\n    }\n}\n",
  "sourcePath": "/home/liberty/workspace/linnia/Linnia-Smart-Contracts/contracts/LinniaPermissions.sol",
  "compiler": {
    "name": "solc",
    "version": "0.4.24+commit.e67f0147.Emscripten.clang"
  },
  "schemaVersion": "2.0.0",
  "updatedAt": "2018-06-25T22:30:05.712Z"
}