{
  "contractName": "LinniaRecords",
  "abi": [
    {
      "constant": true,
      "inputs": [
        {
          "name": "",
          "type": "bytes32"
        }
      ],
      "name": "records",
      "outputs": [
        {
          "name": "owner",
          "type": "address"
        },
        {
          "name": "metadataHash",
          "type": "bytes32"
        },
        {
          "name": "sigCount",
          "type": "uint256"
        },
        {
          "name": "irisScore",
          "type": "uint256"
        },
        {
          "name": "dataUri",
          "type": "string"
        },
        {
          "name": "timestamp",
          "type": "uint256"
        }
      ],
      "payable": false,
      "stateMutability": "view",
      "type": "function"
    },
    {
      "constant": true,
      "inputs": [],
      "name": "hub",
      "outputs": [
        {
          "name": "",
          "type": "address"
        }
      ],
      "payable": false,
      "stateMutability": "view",
      "type": "function"
    },
    {
      "constant": false,
      "inputs": [],
      "name": "unpause",
      "outputs": [],
      "payable": false,
      "stateMutability": "nonpayable",
      "type": "function"
    },
    {
      "constant": true,
      "inputs": [],
      "name": "paused",
      "outputs": [
        {
          "name": "",
          "type": "bool"
        }
      ],
      "payable": false,
      "stateMutability": "view",
      "type": "function"
    },
    {
      "constant": false,
      "inputs": [],
      "name": "renounceOwnership",
      "outputs": [],
      "payable": false,
      "stateMutability": "nonpayable",
      "type": "function"
    },
    {
      "constant": false,
      "inputs": [],
      "name": "destroy",
      "outputs": [],
      "payable": false,
      "stateMutability": "nonpayable",
      "type": "function"
    },
    {
      "constant": false,
      "inputs": [],
      "name": "pause",
      "outputs": [],
      "payable": false,
      "stateMutability": "nonpayable",
      "type": "function"
    },
    {
      "constant": true,
      "inputs": [],
      "name": "owner",
      "outputs": [
        {
          "name": "",
          "type": "address"
        }
      ],
      "payable": false,
      "stateMutability": "view",
      "type": "function"
    },
    {
      "constant": false,
      "inputs": [
        {
          "name": "_newOwner",
          "type": "address"
        }
      ],
      "name": "transferOwnership",
      "outputs": [],
      "payable": false,
      "stateMutability": "nonpayable",
      "type": "function"
    },
    {
      "constant": false,
      "inputs": [
        {
          "name": "_recipient",
          "type": "address"
        }
      ],
      "name": "destroyAndSend",
      "outputs": [],
      "payable": false,
      "stateMutability": "nonpayable",
      "type": "function"
    },
    {
      "inputs": [
        {
          "name": "_hub",
          "type": "address"
        }
      ],
      "payable": false,
      "stateMutability": "nonpayable",
      "type": "constructor"
    },
    {
      "payable": false,
      "stateMutability": "nonpayable",
      "type": "fallback"
    },
    {
      "anonymous": false,
      "inputs": [
        {
          "indexed": true,
          "name": "dataHash",
          "type": "bytes32"
        },
        {
          "indexed": true,
          "name": "owner",
          "type": "address"
        },
        {
          "indexed": false,
          "name": "metadata",
          "type": "string"
        }
      ],
      "name": "LogRecordAdded",
      "type": "event"
    },
    {
      "anonymous": false,
      "inputs": [
        {
          "indexed": true,
          "name": "dataHash",
          "type": "bytes32"
        },
        {
          "indexed": true,
          "name": "attestator",
          "type": "address"
        },
        {
          "indexed": false,
          "name": "irisScore",
          "type": "uint256"
        }
      ],
      "name": "LogRecordSigAdded",
      "type": "event"
    },
    {
      "anonymous": false,
      "inputs": [],
      "name": "Pause",
      "type": "event"
    },
    {
      "anonymous": false,
      "inputs": [],
      "name": "Unpause",
      "type": "event"
    },
    {
      "anonymous": false,
      "inputs": [
        {
          "indexed": true,
          "name": "previousOwner",
          "type": "address"
        }
      ],
      "name": "OwnershipRenounced",
      "type": "event"
    },
    {
      "anonymous": false,
      "inputs": [
        {
          "indexed": true,
          "name": "previousOwner",
          "type": "address"
        },
        {
          "indexed": true,
          "name": "newOwner",
          "type": "address"
        }
      ],
      "name": "OwnershipTransferred",
      "type": "event"
    },
    {
      "constant": false,
      "inputs": [
        {
          "name": "dataHash",
          "type": "bytes32"
        },
        {
          "name": "owner",
          "type": "address"
        },
        {
          "name": "attestator",
          "type": "address"
        },
        {
          "name": "metadata",
          "type": "string"
        },
        {
          "name": "dataUri",
          "type": "string"
        }
      ],
      "name": "addRecordByAdmin",
      "outputs": [
        {
          "name": "",
          "type": "bool"
        }
      ],
      "payable": false,
      "stateMutability": "nonpayable",
      "type": "function"
    },
    {
      "constant": false,
      "inputs": [
        {
          "name": "dataHash",
          "type": "bytes32"
        },
        {
          "name": "metadata",
          "type": "string"
        },
        {
          "name": "dataUri",
          "type": "string"
        }
      ],
      "name": "addRecord",
      "outputs": [
        {
          "name": "",
          "type": "bool"
        }
      ],
      "payable": false,
      "stateMutability": "nonpayable",
      "type": "function"
    },
    {
      "constant": false,
      "inputs": [
        {
          "name": "dataHash",
          "type": "bytes32"
        },
        {
          "name": "owner",
          "type": "address"
        },
        {
          "name": "metadata",
          "type": "string"
        },
        {
          "name": "dataUri",
          "type": "string"
        }
      ],
      "name": "addRecordByProvider",
      "outputs": [
        {
          "name": "",
          "type": "bool"
        }
      ],
      "payable": false,
      "stateMutability": "nonpayable",
      "type": "function"
    },
    {
      "constant": false,
      "inputs": [
        {
          "name": "dataHash",
          "type": "bytes32"
        }
      ],
      "name": "addSigByProvider",
      "outputs": [
        {
          "name": "",
          "type": "bool"
        }
      ],
      "payable": false,
      "stateMutability": "nonpayable",
      "type": "function"
    },
    {
      "constant": false,
      "inputs": [
        {
          "name": "dataHash",
          "type": "bytes32"
        },
        {
          "name": "r",
          "type": "bytes32"
        },
        {
          "name": "s",
          "type": "bytes32"
        },
        {
          "name": "v",
          "type": "uint8"
        }
      ],
      "name": "addSig",
      "outputs": [
        {
          "name": "",
          "type": "bool"
        }
      ],
      "payable": false,
      "stateMutability": "nonpayable",
      "type": "function"
    },
    {
      "constant": true,
      "inputs": [
        {
          "name": "message",
          "type": "bytes32"
        },
        {
          "name": "r",
          "type": "bytes32"
        },
        {
          "name": "s",
          "type": "bytes32"
        },
        {
          "name": "v",
          "type": "uint8"
        }
      ],
      "name": "recover",
      "outputs": [
        {
          "name": "",
          "type": "address"
        }
      ],
      "payable": false,
      "stateMutability": "pure",
      "type": "function"
    },
    {
      "constant": true,
      "inputs": [
        {
          "name": "dataHash",
          "type": "bytes32"
        }
      ],
      "name": "recordOwnerOf",
      "outputs": [
        {
          "name": "",
          "type": "address"
        }
      ],
      "payable": false,
      "stateMutability": "view",
      "type": "function"
    },
    {
      "constant": true,
      "inputs": [
        {
          "name": "dataHash",
          "type": "bytes32"
        }
      ],
      "name": "rootHashOf",
      "outputs": [
        {
          "name": "",
          "type": "bytes32"
        }
      ],
      "payable": false,
      "stateMutability": "view",
      "type": "function"
    },
    {
      "constant": true,
      "inputs": [
        {
          "name": "dataHash",
          "type": "bytes32"
        },
        {
          "name": "provider",
          "type": "address"
        }
      ],
      "name": "sigExists",
      "outputs": [
        {
          "name": "",
          "type": "bool"
        }
      ],
      "payable": false,
      "stateMutability": "view",
      "type": "function"
    }
  ],
  "bytecode": "0x608060405260008060146101000a81548160ff02191690831515021790555034801561002a57600080fd5b5060405160208061267783398101806040528101908080519060200190929190505050336000806101000a81548173ffffffffffffffffffffffffffffffffffffffff021916908373ffffffffffffffffffffffffffffffffffffffff16021790555080600160006101000a81548173ffffffffffffffffffffffffffffffffffffffff021916908373ffffffffffffffffffffffffffffffffffffffff16021790555050612599806100de6000396000f300608060405260043610610107576000357c0100000000000000000000000000000000000000000000000000000000900463ffffffff16806301e647251461011657806304a782ee1461021757806311c4e123146102d05780632e10feff1461031d578063365a86fc1461036657806336880b82146103bd578063388f2c391461042e5780633f4ba83a146104c85780635c975abb146104df578063715018a61461050e57806383197ef0146105255780638456cb591461053c5780638da5cb5b14610553578063a433a0b9146105aa578063a440dd871461069f578063d7c2357814610708578063e27929b61461077a578063f2fde38b1461084f578063f5074f4114610892575b34801561011357600080fd5b50005b34801561012257600080fd5b5061014560048036038101908080356000191690602001909291905050506108d5565b604051808773ffffffffffffffffffffffffffffffffffffffff1673ffffffffffffffffffffffffffffffffffffffff168152602001866000191660001916815260200185815260200184815260200180602001838152602001828103825284818151815260200191508051906020019080838360005b838110156101d75780820151818401526020810190506101bc565b50505050905090810190601f1680156102045780820380516001836020036101000a031916815260200191505b5097505050505050505060405180910390f35b34801561022357600080fd5b506102b66004803603810190808035600019169060200190929190803573ffffffffffffffffffffffffffffffffffffffff169060200190929190803573ffffffffffffffffffffffffffffffffffffffff1690602001909291908035906020019082018035906020019190919293919293908035906020019082018035906020019190919293919293905050506109c9565b604051808215151515815260200191505060405180910390f35b3480156102dc57600080fd5b506102ff6004803603810190808035600019169060200190929190505050610b09565b60405180826000191660001916815260200191505060405180910390f35b34801561032957600080fd5b5061034c6004803603810190808035600019169060200190929190505050610bca565b604051808215151515815260200191505060405180910390f35b34801561037257600080fd5b5061037b610dac565b604051808273ffffffffffffffffffffffffffffffffffffffff1673ffffffffffffffffffffffffffffffffffffffff16815260200191505060405180910390f35b3480156103c957600080fd5b506103ec6004803603810190808035600019169060200190929190505050610dd2565b604051808273ffffffffffffffffffffffffffffffffffffffff1673ffffffffffffffffffffffffffffffffffffffff16815260200191505060405180910390f35b34801561043a57600080fd5b50610486600480360381019080803560001916906020019092919080356000191690602001909291908035600019169060200190929190803560ff169060200190929190505050610e1a565b604051808273ffffffffffffffffffffffffffffffffffffffff1673ffffffffffffffffffffffffffffffffffffffff16815260200191505060405180910390f35b3480156104d457600080fd5b506104dd610fc6565b005b3480156104eb57600080fd5b506104f4611084565b604051808215151515815260200191505060405180910390f35b34801561051a57600080fd5b50610523611097565b005b34801561053157600080fd5b5061053a611199565b005b34801561054857600080fd5b5061055161122e565b005b34801561055f57600080fd5b506105686112ee565b604051808273ffffffffffffffffffffffffffffffffffffffff1673ffffffffffffffffffffffffffffffffffffffff16815260200191505060405180910390f35b3480156105b657600080fd5b506106856004803603810190808035600019169060200190929190803573ffffffffffffffffffffffffffffffffffffffff169060200190929190803590602001908201803590602001908080601f0160208091040260200160405190810160405280939291908181526020018383808284378201915050505050509192919290803590602001908201803590602001908080601f0160208091040260200160405190810160405280939291908181526020018383808284378201915050505050509192919290505050611313565b604051808215151515815260200191505060405180910390f35b3480156106ab57600080fd5b506106ee6004803603810190808035600019169060200190929190803573ffffffffffffffffffffffffffffffffffffffff1690602001909291905050506116be565b604051808215151515815260200191505060405180910390f35b34801561071457600080fd5b50610760600480360381019080803560001916906020019092919080356000191690602001909291908035600019169060200190929190803560ff169060200190929190505050611731565b604051808215151515815260200191505060405180910390f35b34801561078657600080fd5b506108356004803603810190808035600019169060200190929190803590602001908201803590602001908080601f0160208091040260200160405190810160405280939291908181526020018383808284378201915050505050509192919290803590602001908201803590602001908080601f016020809104026020016040519081016040528093929190818152602001838380828437820191505050505050919291929050505061178d565b604051808215151515815260200191505060405180910390f35b34801561085b57600080fd5b50610890600480360381019080803573ffffffffffffffffffffffffffffffffffffffff16906020019092919050505061197c565b005b34801561089e57600080fd5b506108d3600480360381019080803573ffffffffffffffffffffffffffffffffffffffff1690602001909291905050506119e3565b005b60026020528060005260406000206000915090508060000160009054906101000a900473ffffffffffffffffffffffffffffffffffffffff1690806001015490806003015490806004015490806005018054600181600116156101000203166002900480601f0160208091040260200160405190810160405280929190818152602001828054600181600116156101000203166002900480156109b95780601f1061098e576101008083540402835291602001916109b9565b820191906000526020600020905b81548152906001019060200180831161099c57829003601f168201915b5050505050908060060154905086565b60008060009054906101000a900473ffffffffffffffffffffffffffffffffffffffff1673ffffffffffffffffffffffffffffffffffffffff163373ffffffffffffffffffffffffffffffffffffffff16141515610a2657600080fd5b600060149054906101000a900460ff16151515610a4257600080fd5b60011515610ab6898988888080601f01602080910402602001604051908101604052809392919081815260200183838082843782019150505050505087878080601f016020809104026020016040519081016040528093929190818152602001838380828437820191505050505050611a57565b1515141515610ac457600080fd5b60008673ffffffffffffffffffffffffffffffffffffffff16141515610afa57610aee8887611ee7565b1515610af957600080fd5b5b60019050979650505050505050565b600081600260008460001916600019168152602001908152602001600020600101546040516020018083600019166000191681526020018260001916600019168152602001925050506040516020818303038152906040526040518082805190602001908083835b602083101515610b965780518252602082019150602081019050602083039250610b71565b6001836020036101000a03801982511681845116808217855250505050505090500191505060405180910390209050919050565b6000336000600160009054906101000a900473ffffffffffffffffffffffffffffffffffffffff1673ffffffffffffffffffffffffffffffffffffffff1663142ebf3c6040518163ffffffff167c0100000000000000000000000000000000000000000000000000000000028152600401602060405180830381600087803b158015610c5557600080fd5b505af1158015610c69573d6000803e3d6000fd5b505050506040513d6020811015610c7f57600080fd5b810190808051906020019092919050505073ffffffffffffffffffffffffffffffffffffffff1663dbe3e92f836040518263ffffffff167c0100000000000000000000000000000000000000000000000000000000028152600401808273ffffffffffffffffffffffffffffffffffffffff1673ffffffffffffffffffffffffffffffffffffffff168152602001915050602060405180830381600087803b158015610d2a57600080fd5b505af1158015610d3e573d6000803e3d6000fd5b505050506040513d6020811015610d5457600080fd5b8101908080519060200190929190505050111515610d7157600080fd5b600060149054906101000a900460ff16151515610d8d57600080fd5b610d978333611ee7565b1515610da257600080fd5b6001915050919050565b600160009054906101000a900473ffffffffffffffffffffffffffffffffffffffff1681565b600060026000836000191660001916815260200190815260200160002060000160009054906101000a900473ffffffffffffffffffffffffffffffffffffffff169050919050565b6000606060006040805190810160405280601c81526020017f19457468657265756d205369676e6564204d6573736167653a0a333200000000815250915081876040516020018083805190602001908083835b602083101515610e925780518252602082019150602081019050602083039250610e6d565b6001836020036101000a0380198251168184511680821785525050505050509050018260001916600019168152602001925050506040516020818303038152906040526040518082805190602001908083835b602083101515610f0a5780518252602082019150602081019050602083039250610ee5565b6001836020036101000a03801982511681845116808217855250505050505090500191505060405180910390209050600181858888604051600081526020016040526040518085600019166000191681526020018460ff1660ff1681526020018360001916600019168152602001826000191660001916815260200194505050505060206040516020810390808403906000865af1158015610fb0573d6000803e3d6000fd5b5050506020604051035192505050949350505050565b6000809054906101000a900473ffffffffffffffffffffffffffffffffffffffff1673ffffffffffffffffffffffffffffffffffffffff163373ffffffffffffffffffffffffffffffffffffffff1614151561102157600080fd5b600060149054906101000a900460ff16151561103c57600080fd5b60008060146101000a81548160ff0219169083151502179055507f7805862f689e2f13df9f062ff482ad3ad112aca9e0847911ed832e158c525b3360405160405180910390a1565b600060149054906101000a900460ff1681565b6000809054906101000a900473ffffffffffffffffffffffffffffffffffffffff1673ffffffffffffffffffffffffffffffffffffffff163373ffffffffffffffffffffffffffffffffffffffff161415156110f257600080fd5b6000809054906101000a900473ffffffffffffffffffffffffffffffffffffffff1673ffffffffffffffffffffffffffffffffffffffff167ff8df31144d9c2f0f6b59d69b8b98abd5459d07f2742c4df920b25aae33c6482060405160405180910390a260008060006101000a81548173ffffffffffffffffffffffffffffffffffffffff021916908373ffffffffffffffffffffffffffffffffffffffff160217905550565b6000809054906101000a900473ffffffffffffffffffffffffffffffffffffffff1673ffffffffffffffffffffffffffffffffffffffff163373ffffffffffffffffffffffffffffffffffffffff161415156111f457600080fd5b6000809054906101000a900473ffffffffffffffffffffffffffffffffffffffff1673ffffffffffffffffffffffffffffffffffffffff16ff5b6000809054906101000a900473ffffffffffffffffffffffffffffffffffffffff1673ffffffffffffffffffffffffffffffffffffffff163373ffffffffffffffffffffffffffffffffffffffff1614151561128957600080fd5b600060149054906101000a900460ff161515156112a557600080fd5b6001600060146101000a81548160ff0219169083151502179055507f6985a02210a168e66602d3235cb6db0e70f92b3ba4d376a33c0f3d9434bff62560405160405180910390a1565b6000809054906101000a900473ffffffffffffffffffffffffffffffffffffffff1681565b600060011515600160009054906101000a900473ffffffffffffffffffffffffffffffffffffffff1673ffffffffffffffffffffffffffffffffffffffff1663142ebf3c6040518163ffffffff167c0100000000000000000000000000000000000000000000000000000000028152600401602060405180830381600087803b15801561139f57600080fd5b505af11580156113b3573d6000803e3d6000fd5b505050506040513d60208110156113c957600080fd5b810190808051906020019092919050505073ffffffffffffffffffffffffffffffffffffffff16634209fff1336040518263ffffffff167c0100000000000000000000000000000000000000000000000000000000028152600401808273ffffffffffffffffffffffffffffffffffffffff1673ffffffffffffffffffffffffffffffffffffffff168152602001915050602060405180830381600087803b15801561147457600080fd5b505af1158015611488573d6000803e3d6000fd5b505050506040513d602081101561149e57600080fd5b810190808051906020019092919050505015151415156114bd57600080fd5b336000600160009054906101000a900473ffffffffffffffffffffffffffffffffffffffff1673ffffffffffffffffffffffffffffffffffffffff1663142ebf3c6040518163ffffffff167c0100000000000000000000000000000000000000000000000000000000028152600401602060405180830381600087803b15801561154657600080fd5b505af115801561155a573d6000803e3d6000fd5b505050506040513d602081101561157057600080fd5b810190808051906020019092919050505073ffffffffffffffffffffffffffffffffffffffff1663dbe3e92f836040518263ffffffff167c0100000000000000000000000000000000000000000000000000000000028152600401808273ffffffffffffffffffffffffffffffffffffffff1673ffffffffffffffffffffffffffffffffffffffff168152602001915050602060405180830381600087803b15801561161b57600080fd5b505af115801561162f573d6000803e3d6000fd5b505050506040513d602081101561164557600080fd5b810190808051906020019092919050505011151561166257600080fd5b600060149054906101000a900460ff1615151561167e57600080fd5b6001151561168e87878787611a57565b151514151561169c57600080fd5b6116a68633611ee7565b15156116b157600080fd5b6001915050949350505050565b600060026000846000191660001916815260200190815260200160002060020160008373ffffffffffffffffffffffffffffffffffffffff1673ffffffffffffffffffffffffffffffffffffffff16815260200190815260200160002060009054906101000a900460ff16905092915050565b60008060008060149054906101000a900460ff1615151561175157600080fd5b61175a87610b09565b915061176882878787610e1a565b90506117748782611ee7565b151561177f57600080fd5b600192505050949350505050565b600060011515600160009054906101000a900473ffffffffffffffffffffffffffffffffffffffff1673ffffffffffffffffffffffffffffffffffffffff1663142ebf3c6040518163ffffffff167c0100000000000000000000000000000000000000000000000000000000028152600401602060405180830381600087803b15801561181957600080fd5b505af115801561182d573d6000803e3d6000fd5b505050506040513d602081101561184357600080fd5b810190808051906020019092919050505073ffffffffffffffffffffffffffffffffffffffff16634209fff1336040518263ffffffff167c0100000000000000000000000000000000000000000000000000000000028152600401808273ffffffffffffffffffffffffffffffffffffffff1673ffffffffffffffffffffffffffffffffffffffff168152602001915050602060405180830381600087803b1580156118ee57600080fd5b505af1158015611902573d6000803e3d6000fd5b505050506040513d602081101561191857600080fd5b8101908080519060200190929190505050151514151561193757600080fd5b600060149054906101000a900460ff1615151561195357600080fd5b6001151561196385338686611a57565b151514151561197157600080fd5b600190509392505050565b6000809054906101000a900473ffffffffffffffffffffffffffffffffffffffff1673ffffffffffffffffffffffffffffffffffffffff163373ffffffffffffffffffffffffffffffffffffffff161415156119d757600080fd5b6119e0816123b2565b50565b6000809054906101000a900473ffffffffffffffffffffffffffffffffffffffff1673ffffffffffffffffffffffffffffffffffffffff163373ffffffffffffffffffffffffffffffffffffffff16141515611a3e57600080fd5b8073ffffffffffffffffffffffffffffffffffffffff16ff5b6000806000600102866000191614151515611a7157600080fd5b6000835114151515611a8257600080fd5b836040516020018082805190602001908083835b602083101515611abb5780518252602082019150602081019050602083039250611a96565b6001836020036101000a0380198251168184511680821785525050505050509050019150506040516020818303038152906040526040518082805190602001908083835b602083101515611b245780518252602082019150602081019050602083039250611aff565b6001836020036101000a03801982511681845116808217855250505050505090500191505060405180910390209050600060026000886000191660001916815260200190815260200160002060060154141515611b8057600080fd5b60011515600160009054906101000a900473ffffffffffffffffffffffffffffffffffffffff1673ffffffffffffffffffffffffffffffffffffffff1663142ebf3c6040518163ffffffff167c0100000000000000000000000000000000000000000000000000000000028152600401602060405180830381600087803b158015611c0a57600080fd5b505af1158015611c1e573d6000803e3d6000fd5b505050506040513d6020811015611c3457600080fd5b810190808051906020019092919050505073ffffffffffffffffffffffffffffffffffffffff16634209fff1876040518263ffffffff167c0100000000000000000000000000000000000000000000000000000000028152600401808273ffffffffffffffffffffffffffffffffffffffff1673ffffffffffffffffffffffffffffffffffffffff168152602001915050602060405180830381600087803b158015611cdf57600080fd5b505af1158015611cf3573d6000803e3d6000fd5b505050506040513d6020811015611d0957600080fd5b81019080805190602001909291905050501515141515611d2857600080fd5b60c0604051908101604052808673ffffffffffffffffffffffffffffffffffffffff1681526020018260001916815260200160008152602001600081526020018481526020014281525060026000886000191660001916815260200190815260200160002060008201518160000160006101000a81548173ffffffffffffffffffffffffffffffffffffffff021916908373ffffffffffffffffffffffffffffffffffffffff1602179055506020820151816001019060001916905560408201518160030155606082015181600401556080820151816005019080519060200190611e149291906124c8565b5060a082015181600601559050508473ffffffffffffffffffffffffffffffffffffffff1686600019167ff9c85f508dc6108801f454007c53fa2602550899d9c368d54fec9ea8d24dd9e7866040518080602001828103825283818151815260200191508051906020019080838360005b83811015611ea0578082015181840152602081019050611e85565b50505050905090810190601f168015611ecd5780820380516001836020036101000a031916815260200191505b509250505060405180910390a36001915050949350505050565b6000806000836000600160009054906101000a900473ffffffffffffffffffffffffffffffffffffffff1673ffffffffffffffffffffffffffffffffffffffff1663142ebf3c6040518163ffffffff167c0100000000000000000000000000000000000000000000000000000000028152600401602060405180830381600087803b158015611f7557600080fd5b505af1158015611f89573d6000803e3d6000fd5b505050506040513d6020811015611f9f57600080fd5b810190808051906020019092919050505073ffffffffffffffffffffffffffffffffffffffff1663dbe3e92f836040518263ffffffff167c0100000000000000000000000000000000000000000000000000000000028152600401808273ffffffffffffffffffffffffffffffffffffffff1673ffffffffffffffffffffffffffffffffffffffff168152602001915050602060405180830381600087803b15801561204a57600080fd5b505af115801561205e573d6000803e3d6000fd5b505050506040513d602081101561207457600080fd5b810190808051906020019092919050505011151561209157600080fd5b600260008760001916600019168152602001908152602001600020925060008360060154141515156120c257600080fd5b8260020160008673ffffffffffffffffffffffffffffffffffffffff1673ffffffffffffffffffffffffffffffffffffffff16815260200190815260200160002060009054906101000a900460ff1615151561211d57600080fd5b600160009054906101000a900473ffffffffffffffffffffffffffffffffffffffff1673ffffffffffffffffffffffffffffffffffffffff1663142ebf3c6040518163ffffffff167c0100000000000000000000000000000000000000000000000000000000028152600401602060405180830381600087803b1580156121a357600080fd5b505af11580156121b7573d6000803e3d6000fd5b505050506040513d60208110156121cd57600080fd5b810190808051906020019092919050505073ffffffffffffffffffffffffffffffffffffffff1663dbe3e92f866040518263ffffffff167c0100000000000000000000000000000000000000000000000000000000028152600401808273ffffffffffffffffffffffffffffffffffffffff1673ffffffffffffffffffffffffffffffffffffffff168152602001915050602060405180830381600087803b15801561227857600080fd5b505af115801561228c573d6000803e3d6000fd5b505050506040513d60208110156122a257600080fd5b810190808051906020019092919050505091506122cd600184600301546124ac90919063ffffffff16565b836003018190555060018360020160008773ffffffffffffffffffffffffffffffffffffffff1673ffffffffffffffffffffffffffffffffffffffff16815260200190815260200160002060006101000a81548160ff0219169083151502179055506123468284600401546124ac90919063ffffffff16565b83600401819055508473ffffffffffffffffffffffffffffffffffffffff1686600019167fbfa111b0caca37d6a08934a8a389edc0808cff0d7377bb6797dac31300af315b85600401546040518082815260200191505060405180910390a36001935050505092915050565b600073ffffffffffffffffffffffffffffffffffffffff168173ffffffffffffffffffffffffffffffffffffffff16141515156123ee57600080fd5b8073ffffffffffffffffffffffffffffffffffffffff166000809054906101000a900473ffffffffffffffffffffffffffffffffffffffff1673ffffffffffffffffffffffffffffffffffffffff167f8be0079c531659141344cd1fd0a4f28419497f9722a3daafe3b4186f6b6457e060405160405180910390a3806000806101000a81548173ffffffffffffffffffffffffffffffffffffffff021916908373ffffffffffffffffffffffffffffffffffffffff16021790555050565b600081830190508281101515156124bf57fe5b80905092915050565b828054600181600116156101000203166002900490600052602060002090601f016020900481019282601f1061250957805160ff1916838001178555612537565b82800160010185558215612537579182015b8281111561253657825182559160200191906001019061251b565b5b5090506125449190612548565b5090565b61256a91905b8082111561256657600081600090555060010161254e565b5090565b905600a165627a7a723058203fba59ab54c0716768624a57fc206572ed740e83409e6dcb065e603229b304350029",
  "source": "pragma solidity 0.4.24;\n\nimport \"openzeppelin-solidity/contracts/lifecycle/Destructible.sol\";\nimport \"openzeppelin-solidity/contracts/lifecycle/Pausable.sol\";\nimport \"openzeppelin-solidity/contracts/ownership/Ownable.sol\";\nimport \"openzeppelin-solidity/contracts/math/SafeMath.sol\";\nimport \"./LinniaHub.sol\";\nimport \"./LinniaUsers.sol\";\n\n\ncontract LinniaRecords is Ownable, Pausable, Destructible {\n    using SafeMath for uint;\n\n    // Struct of a linnia record\n    // A linnia record is identified by its data hash, which is\n    // keccak256(data)\n    struct Record {\n        // owner of the record\n        address owner;\n        // hash of the plaintext metadata\n        bytes32 metadataHash;\n        // attestator signatures\n        mapping (address => bool) sigs;\n        // count of attestator sigs\n        uint sigCount;\n        // calculated iris score\n        uint irisScore;\n        // ipfs path of the encrypted data\n        string dataUri;\n        // timestamp of the block when the record is added\n        uint timestamp;\n    }\n\n    event LogRecordAdded(\n        bytes32 indexed dataHash, address indexed owner, string metadata\n    );\n    event LogRecordSigAdded(\n        bytes32 indexed dataHash, address indexed attestator, uint irisScore\n    );\n\n    LinniaHub public hub;\n    // all linnia records\n    // dataHash => record mapping\n    mapping(bytes32 => Record) public records;\n\n    /* Modifiers */\n\n    modifier onlyUser() {\n        require(hub.usersContract().isUser(msg.sender) == true);\n        _;\n    }\n\n    modifier hasProvenance(address user) {\n        require(hub.usersContract().provenanceOf(user) > 0);\n        _;\n    }\n\n    /* Constructor */\n    constructor(LinniaHub _hub) public {\n        hub = _hub;\n    }\n\n    /* Fallback function */\n    function () public { }\n\n    /* External functions */\n\n    function addRecordByAdmin(\n        bytes32 dataHash, address owner, address attestator,\n        string metadata, string dataUri)\n        onlyOwner\n        whenNotPaused\n        external\n        returns (bool)\n    {\n        require(_addRecord(dataHash, owner, metadata, dataUri) == true);\n        if (attestator != 0) {\n            require(_addSig(dataHash, attestator));\n        }\n        return true;\n    }\n\n    /* Public functions */\n\n    /// Add a record by user without any provider's signatures.\n    /// @param dataHash the hash of the data\n    /// @param metadata plaintext metadata for the record\n    /// @param dataUri the ipfs path of the encrypted data\n    function addRecord(\n        bytes32 dataHash, string metadata, string dataUri)\n        onlyUser\n        whenNotPaused\n        public\n        returns (bool)\n    {\n        require(\n            _addRecord(dataHash, msg.sender, metadata, dataUri) == true\n        );\n        return true;\n    }\n\n    /// Add a record by a data provider.\n    /// @param dataHash the hash of the data\n    /// @param owner owner of the record\n    /// @param metadata plaintext metadata for the record\n    /// @param dataUri the ipfs path of the encrypted data\n    function addRecordByProvider(\n        bytes32 dataHash, address owner, string metadata, string dataUri)\n        onlyUser\n        hasProvenance(msg.sender)\n        whenNotPaused\n        public\n        returns (bool)\n    {\n        // add the file first\n        require(_addRecord(dataHash, owner, metadata, dataUri) == true);\n        // add provider's sig to the file\n        require(_addSig(dataHash, msg.sender));\n        return true;\n    }\n\n    /// Add a provider's signature to a linnia record,\n    /// i.e. adding an attestation\n    /// This function is only callable by a provider\n    /// @param dataHash the data hash of the linnia record\n    function addSigByProvider(bytes32 dataHash)\n        hasProvenance(msg.sender)\n        whenNotPaused\n        public\n        returns (bool)\n    {\n        require(_addSig(dataHash, msg.sender));\n        return true;\n    }\n\n    /// Add a provider's signature to a linnia record\n    /// i.e. adding an attestation\n    /// This function can be called by anyone. As long as the signatures are\n    /// indeed from a provider, the sig will be added to the record.\n    /// The signature should cover the root hash, which is\n    /// hash(hash(data), hash(metadata))\n    /// @param dataHash the data hash of a linnia record\n    /// @param r signature: R\n    /// @param s signature: S\n    /// @param v signature: V\n    function addSig(bytes32 dataHash, bytes32 r, bytes32 s, uint8 v)\n        public\n        whenNotPaused\n        returns (bool)\n    {\n        // find the root hash of the record\n        bytes32 rootHash = rootHashOf(dataHash);\n        // recover the provider's address from signature\n        address provider = recover(rootHash, r, s, v);\n        // add sig\n        require(_addSig(dataHash, provider));\n        return true;\n    }\n\n    function recover(bytes32 message, bytes32 r, bytes32 s, uint8 v)\n        public pure returns (address)\n    {\n        bytes memory prefix = \"\\x19Ethereum Signed Message:\\n32\";\n        bytes32 prefixedHash = keccak256(abi.encodePacked(prefix, message));\n        return ecrecover(prefixedHash, v, r, s);\n    }\n\n    function recordOwnerOf(bytes32 dataHash)\n        public view returns (address)\n    {\n        return records[dataHash].owner;\n    }\n\n    function rootHashOf(bytes32 dataHash)\n        public view returns (bytes32)\n    {\n        return keccak256(abi.encodePacked(dataHash, records[dataHash].metadataHash));\n    }\n\n    function sigExists(bytes32 dataHash, address provider)\n        public view returns (bool)\n    {\n        return records[dataHash].sigs[provider];\n    }\n\n    /* Internal functions */\n\n    function _addRecord(\n        bytes32 dataHash, address owner, string metadata, string dataUri)\n        internal\n        returns (bool)\n    {\n        // validate input\n        require(dataHash != 0);\n        require(bytes(dataUri).length != 0);\n        bytes32 metadataHash = keccak256(abi.encodePacked(metadata));\n\n        // the file must be new\n        require(records[dataHash].timestamp == 0);\n        // verify owner\n        require(hub.usersContract().isUser(owner) == true);\n        // add record\n        records[dataHash] = Record({\n            owner: owner,\n            metadataHash: metadataHash,\n            sigCount: 0,\n            irisScore: 0,\n            dataUri: dataUri,\n            // solium-disable-next-line security/no-block-members\n            timestamp: block.timestamp\n        });\n        // emit event\n        emit LogRecordAdded(dataHash, owner, metadata);\n        return true;\n    }\n\n    function _addSig(bytes32 dataHash, address provider)\n        hasProvenance(provider)\n        internal\n        returns (bool)\n    {\n        Record storage record = records[dataHash];\n        // the file must exist\n        require(record.timestamp != 0);\n        // the provider must not have signed the file already\n        require(!record.sigs[provider]);\n        uint provenanceScore = hub.usersContract().provenanceOf(provider);\n        // add signature\n        record.sigCount = record.sigCount.add(1);\n        record.sigs[provider] = true;\n        // update iris score\n        record.irisScore = record.irisScore.add(provenanceScore);\n        // emit event\n        emit LogRecordSigAdded(dataHash, provider, record.irisScore);\n        return true;\n    }\n}\n",
  "sourcePath": "/home/liberty/workspace/linnia/Linnia-Smart-Contracts/contracts/LinniaRecords.sol",
  "compiler": {
    "name": "solc",
    "version": "0.4.24+commit.e67f0147.Emscripten.clang"
  },
  "schemaVersion": "2.0.0",
  "updatedAt": "2018-06-25T22:30:05.702Z"
}